:10000000352883120313B400283034020318003457
:10001000831203138A0134088207543445344D3463
:1000200050340034563441344C345534453425343E
:1000300075340A34003443344834453443344B3443
:1000400000344F344E344C3449344E344534253426
:1000500063340A3400344E344F344D344534533411
:100060005334253463340A3400348E20831203134E
:10007000AC01F920223083120313AD002E2122306F
:1000800083120313AD00AE01A920031C53287A206C
:10009000831203132D08A0002E08A1000530AD0027
:1000A00020087A223928223083120313AD000E3043
:1000B000AE00A920031C6B28643018211430831271
:1000C0000313AD002C08AB21143083120313AD00D1
:1000D0002C087A223928643018211E308312031329
:1000E000AD002C08AB211E3083120313AD002C0889
:1000F0007A223928831203139F14831203139F1843
:100100007D28831203131E08AE00AD0183161E085E
:100110008312AD070318AE0A2D08080083160313D7
:1001200085018601870186168613071585128312BD
:1001300003171E171030831603139F009930831284
:100140009F0064301821682164301821E720643052
:10015000182983120313AF01831203132F082D07ED
:10016000840083130008B0002F082E07012083129B
:100170000313B100310830060319C028031008002A
:1001800083120313B108031DC72803140800831248
:100190000313AF0AAC28FF008312031385127F08F4
:1001A00018218312031385167F081829FF000230D7
:1001B0008316031381008312031381017D308312A0
:1001C00003130102031CDE28FF0BDB280800831643
:1001D0000313981618121813831298178316181100
:1001E0009B153330990083121816181303179F11AB
:1001F0000800831203131A08AD001A08AD00181284
:1002000018160800831203138C1E0229831203138D
:100210001A08B0003008080083120313B4008312D8
:1002200003130C1E0F2983120313340899000800CE
:1002300083120313AD000730831681002730831229
:1002400003130107AE00831203132E080106031DDA
:10025000232983120313AD0B1E29080083120313F5
:10026000AE01022183120313AF002E082D07840074
:1002700083132F0880002E08093A031943292F08F9
:100280000D3A031D4B29831203132E082D078400FA
:1002900083138001080083120313AE0A3129FF0182
:1002A0008D21FF007F087F07840083137F08800073
:1002B0007F08093A031960297F080D3A031D662952
:1002C0007F087F078400831380010800FF0A5029FC
:1002D000831203171E109E100313051483160510B6
:1002E0008514080083120313B40005100A30B5000A
:1002F00083120313B50803198C291230B600831238
:100300000313B60B7F2900000314B40C031C051063
:1003100003180514B5037829080083120313851800
:100320008D291C30FF00FF0B93290000972908300E
:10033000FF00FF080319A92903108312031385186E
:100340000314FF0C1230FF00FF0BA4290000FF0371
:1003500099297F08080083120313AE00AF018312AE
:1003600003132F082D07012083120313B000B008D8
:100370000319792A831203133008253A031D712AC1
:10038000AF0A2F082D07012083120313B000300895
:10039000643A0319D829113A0319E929173A0319BC
:1003A000512A013A0319662A463A03196B2A6E2A22
:1003B00083120313AE1FDF292D300C21E1292030D9
:1003C00072218130831203132E02031CE929AE0926
:1003D000AE0A831203132E08B500B6010830B4002C
:1003E00083120313B50DB60D64303602031CFD29CC
:1003F000643083120313B602031483120313B20D85
:10040000B40BF029303032077221831203132E0807
:10041000B500B3010830B40083120313B50DB30D5A
:1004200064303302031C182A643083120313B302AE
:1004300083120313B40B0C2A3308B500B60108303D
:10044000B40083120313B50DB60D0A303602031C37
:100450002E2A0A3083120313B602031483120313E5
:10046000B20DB40B212A30303207722183120313EC
:100470003308B500B2010830B40083120313B50D80
:10048000B20D0A303202031C492A0A3083120313C8
:10049000B20283120313B40B3D2A303032077221AB
:1004A000752A83120313B10108308312031331023A
:1004B0000318752AAE1F5F2A31307221612A30304D
:1004C000722183120313AE0DB10A542A831203134F
:1004D0002E087221752A25307221752A2130722149
:1004E000752A831203133008722183120313AF0A93
:1004F000AF29080083120313AE00AF018312031368
:100500002F082D07012083120313B000B008031930
:10051000482B831203133008253A031D402BAF0AE2
:100520002F082D07012083120313B0003008643A0E
:100530000319A72A113A0319B82A173A0319202BCD
:10054000013A0319352B463A03193A2B3D2B8312F6
:100550000313AE1FAE2A2D300C21B02A20300C21FF
:100560008130831203132E02031CB82AAE09AE0A8F
:10057000831203132E08B500B6010830B4008312AD
:100580000313B50DB60D64303602031CCC2A64305B
:1005900083120313B602031483120313B20DB40BB8
:1005A000BF2A303032070C21831203132E08B50006
:1005B000B3010830B40083120313B50DB30D6430DA
:1005C0003302031CE72A643083120313B30283123D
:1005D0000313B40BDB2A3308B500B6010830B400AE
:1005E00083120313B50DB60D0A303602031CFD2A23
:1005F0000A3083120313B602031483120313B20DDD
:10060000B40BF02A303032070C2183120313330865
:10061000B500B2010830B40083120313B50DB20D5A
:100620000A303202031C182B0A3083120313B20261
:1006300083120313B40B0C2B303032070C21442BE4
:1006400083120313B101083083120313310203181C
:10065000442BAE1F2E2B31300C21302B30300C218F
:1006600083120313AE0DB10A232B831203132E083A
:100670000C21442B25300C21442B21300C21442B00
:100680008312031330080C2183120313AF0A7E2A4E
:02069000080060
:02400E00D400DC
:00000001FF
